:0401AF000212000038
:040145007FE87E03CE
:10014900D3EF9400EE940040147D6E7C00ED1D7099
:0D015900011CED4C70F7EF1F70E61E80E3F7
:010166002276
:10016700759850E4F587758920758DFD858D8BD23F
:0A0177008ED29CD2ACC299D2AF2206
:10010F00EE7032EF14601314601914601F24037023
:10011F00247590FE1201457590FF7590FD120145F3
:10012F007590FF7590FB1201457590FF7590F71252
:06013F0001457590FF224E
:10000300EE701AEF14600D14600D14600D2403706C
:0E0013000C7590FE7590FD7590FB7590F722B0
:10019700E510B51106FF7E00020003AF107E0012C6
:0301A700010F2223
:030023000200B226
:0D00B200C0E0C0F0C083C082C0D075D0088F
:1000BF007512007513007590003098397515002072
:1000CF00981A0513E51370020512AE12FFE4FCFD3A
:1000DF007BDC7AFFF9F8C312018150E375120075CA
:1000EF00130074102515F8A699C2980515E515B4D7
:0500FF0002CD12019783
:0B010400D0D0D082D083D0F0D0E03209
:0501AA0012016780FE58
:03000000020026D5
:0C002600787FE4F6D8FD75811502006DAE
:10018100EB9FF5F0EA9E42F0E99D42F0EC6480C8F5
:0601910064809845F02295
:100032000201AAE493A3F8E493A34003F68001F239
:1000420008DFF48029E493A3F85407240CC8C333CF
:10005200C4540F4420C8834004F456800146F6DF9E
:10006200E4800B01020408102040809001AFE47E7E
:10007200019360BCA3FF543F30E509541FFEE49393
:10008200A360010ECF54C025E060A840B8E493A35A
:10009200FAE493A3F8E493A3C8C582C8CAC583CA85
:1000A200F0A3C8C582C8CAC583CADFE9DEE780BE3D
:0101B300004B
:00000001FF
