:1004D10010103F065B4F666D7D077F6F777C395E3D
:1004E10079710624FEFDFBF7EFDF02200000024ECA
:0A04F100000002220000025000008B
:100525008B738A748975AB73AA74A97575821475F2
:0B053500830074FF75F0FF1200E3224A
:10037B008B6B8A6C896D8D6EAB6BAA6CA96D75825C
:10038B00147583001200ABFFAEF0EF2401FFEE34C7
:10039B0000FE7C007D14120075AB6BAA6CA96D7509
:1003AB008214758300EC8DF01200E3AB6BAA6CA981
:1003BB006D7582147583001200ABFFAEF0AB6BAAA8
:0D03CB006CA96D8F828E83E56E12005322A7
:1003D8008B668A6789688C698D6AC3E569648094CD
:1003E80080501AAB66AA67A968E56A2415FFE56913
:1003F8003400FE8F828E83120026FF2222AE69AF60
:100408006A7C007D14120075AB66AA67A9688D82A4
:070418008C83120026FF2275
:040463008E5A8F5BC3
:10046700855A5C855B5DD3E55D9400E55C9400404F
:1004770025755E00755F6ED3E55F9400E55E9400B9
:10048700400AE55F155F7002155E80EBE55D155D5F
:060497007002155C80D02C
:01049D00223C
:10054000759850758700758920758DFD858D8BD2C6
:0A0550008ED29CD2ACC299D2AF2229
:040587007580FF225A
:040311008E608F610A
:10031500E5214520605F20985C756400756500C324
:10032500E5659561E5606480F8E56464809850E072
:10033500C2A6C2A7AF65EF25E0242AF8E6F5620854
:10034500E6F563AF6374102FF8E6FF8F80D2A6C27F
:10035500A6120587AF6574242FF8E6FF8F80D2A714
:10036500C2A77F027E001204630565E5657002057C
:050375006480AC809BD8
:01037A002260
:100003008E768F77754E00754F018577997F0A7EBF
:0E00130000120463E54F454E70FA2280F7227A
:04041F008E6F8F70DD
:10042300757100757200C3E5729570E571956F5033
:100433001AAF72EF25E0242AF8E6FE08E6FF120061
:10044300030572E5727002057180DB75200075216A
:0F045300017F647E00120463AF70AE6F1203115D
:010462002277
:1001AA0075520075530075540075550075560075E3
:1001BA005700E54D24FFF559E54C34FFF5587B000F
:1001CA007A0079381205728E548F55C3E553940616
:1001DA00E552648094804003020268C3E55795554E
:1001EA00E5546480F8E55664809850727B007A0082
:1001FA007938C3E5599557FDE5589556FC1203D849
:10020A00EFC39430404D7B007A007938C3E55995A5
:10021A0057FDE5589556FC1203D8EFD3943950335D
:10022A007B007A007938C3E5599553FDE558955214
:10023A00FC1203D87E00EF24D0FFEE34FFFEAD534C
:10024A00ED25E0242AF8A60608A6070553E553700B
:10025A000205520557E557700205560201D57E0080
:10026A007F087D7A7B007A007938120110754CFF7D
:0A027A00754DFFAF53AE5212041F82
:010284002257
:10055A007B007A007938AD9912037B7522007523E6
:08056A0001752000752100223B
:0300230002049E36
:10049E00C0E0C0F0C083C082C0D075D00830990CC7
:1004AE00C2AC754E00754F00C299D2AC309809C2DD
:1004BE00AC12055AC298D2ACD0D0D082D083D0F034
:0304CE00D0E03249
:1004FC001205407B007A0079381205257B007A00C2
:10050C007938AD4DAC4C1203D8EFB440EFE5234530
:09051C002260E91201AA80E42228
:0300000002028574
:0C028500787FE4F6D8FD7581770202CC8A
:10002600BB010CE58229F582E5833AF583E022508F
:1000360006E92582F8E622BBFE06E92582F8E222D9
:0D004600E58229F582E5833AF583E49322F3
:10005300F8BB010DE58229F582E5833AF583E8F0E3
:10006300225006E92582C8F622BBFE05E92582C88F
:02007300F22277
:10007500C2D5EC30E709B2D5E4C39DFDE49CFCEEA6
:1000850030E715B2D5E4C39FFFE49EFE120155C3C8
:10009500E49DFDE49CFC800312015530D507C3E4C3
:0600A5009FFFE49EFE2215
:1000AB00BB0110E58229F582E5833AF583E0F5F093
:1000BB00A3E0225009E92582F886F008E622BBFE70
:1000CB000AE92582F8E2F5F008E222E5832AF583B6
:0800DB00E993F5F0A3E993227B
:1000E300F8BB0111E58229F582E5833AF583E8F04F
:1000F300E5F0A3F0225009E92582C8F608A6F0220C
:0D010300BBFE09E92582C8F2E5F008F222F2
:10057200E4FFFE12013C600C0FEF70010E09E970FE
:05058200F20A80EF22E7
:10011000EF4E6012EF60010EEDBB010B89828A8306
:10012000F0A3DFFCDEFA2289F05007F709DFFCA913
:0C013000F022BBFEFCF309DFFCA9F0226A
:100291000204FCE493A3F8E493A34003F68001F283
:1002A10008DFF48029E493A3F85407240CC8C3336E
:1002B100C4540F4420C8834004F456800146F6DF3D
:1002C100E4800B01020408102040809004D1E47EF8
:1002D100019360BCA3FF543F30E509541FFEE49332
:1002E100A360010ECF54C025E060A840B8E493A3F9
:1002F100FAE493A3F8E493A3C8C582C8CAC583CA24
:10030100F0A3C8C582C8CAC583CADFE9DEE780BEDB
:0104FB000000
:10013C00BB010689828A83E0225002E722BBFE02C1
:09014C00E32289828A83E49322F4
:10015500BC000BBE0029EF8DF084FFADF022E4CC8E
:10016500F875F008EF2FFFEE33FEEC33FCEE9DEC57
:10017500984005FCEE9DFE0FD5F0E9E4CEFD22ED9D
:10018500F8F5F0EE8420D21CFEADF075F008EF2FE7
:10019500FFED33FD4007985006D5F0F222C398FDD8
:0501A5000FD5F0EA2275
:00000001FF
