:1009D50041542B5253540A0049500041542B43496A
:1009E500504D4F44453D310A004F4B0041542B4378
:1009F50049504D55583D300A0041542B43495053F9
:100A0500544152543D22554450222C223139322E24
:100A15003136382E3139392E323235222C383038AC
:100A2500302C313131312C300A0041542B4349509F
:060A350053454E440A0087
:100AD8000228000002410000022A0000022C000047
:100AE80001347106227773616462005000003F068A
:100AF8005B4F666D7D077F6F777C395E7971062E57
:0F0B0800FEFDFBF7EFDF4600247950505C503FB5
:100BFB00E52C7028E52D24FE600F14601114601392
:100C0B00240370187590FE800D7590FD800875900B
:0D0C1B00FB80037590F7120CF07590FF221E
:100CCC00E52C701FE52D24FE600E14600F146010CF
:100CDC002403700F7590FE227590FD227590FB22F7
:040CEC007590F722E6
:0C0D4A00C2A37FE87E03120CF4D2A322A7
:100B1800E534B52208752C00752D018025E534B51E
:100B28002308752C00752D028018E534B524087546
:100B38002C00752D03800BE534B52509752C00753F
:0E0B48002D04020BFBE534B52603120D4A22E4
:040CF0007F647E009F
:100CF400D3EF9400EE940040147D7D7C00ED1D70D4
:0D0D0400011CED4C70F7EF1F70E61E80E340
:010D110022BF
:100D12007541007542018F997F0A7E00120CF4E53D
:060D220042454170FA2277
:10096B00E4F528F529E599B47114E5346471600E4A
:10097B00E53464626008120CCC7534718023E59900
:10098B0064776017E59964736011E5996461600B96
:10099B00E59964646005E599B4620F859934120B8F
:1009AB00187B007A007935020CADE599C394304081
:1009BB0018E599D3943950117B007A007935AD99AC
:0A09CB00120B93752A00752B012210
:03002300020BC805
:100BC800C0E0C0F0C083C082C0D075D00830990C96
:100BD800C2AC754100754200C299D2AC309809C2C6
:100BE800AC12096BC298D2ACD0D0D082D083D0F0EE
:030BF800D0E03218
:060CA7007B007A007935A4
:100CAD008B4F8A5089517E007F087D7A1205BCAB2F
:0F0CBD004FAA50A95190000A74FFF5F00204A647
:100B93008B438A4489458D4690000A12046E2401D2
:100BA300FFE435F0FE7C007D0A12043890000AEC65
:100BB3008DF01204A690000A12046EF58285F0836C
:050BC300E5460203AF4E
:0A0B5600E54E954CFDE54D954BFC76
:100B60008B4F8A508951C3EC64809480500B740B76
:100B70002DF582E43CF5838015AE04AF057C007D45
:100B80000A120438AB4FAA50A9518D828C831203EC
:030B900082FF22BF
:090D3D00F583E0F580D2A6C2A600
:040D46007580FF2293
:10000300C2A6C2A774002FF58274003E120D3D856F
:070013002E80D2A7C2A72234
:0408FE008E518F5236
:10090200C2ACE5294528605E20985BE4FBFAC3EBA4
:100912009552E5516480F8EA6480985040C2A6C2BC
:10092200A7EB25E0FFEA33FE742A2FF58274003E1E
:10093200F583E0F553A3E0F5542400F58274003505
:1009420053120D3D742E2BF8E6F580D2A7C2A77F75
:10095200027E00120CF40BBB00010A80B1E4F580A8
:08096200D2A6C2A6809CD2AC13
:01096A00226A
:040A92008E4F8F50A4
:100A9600E4FBFAC3EB9550E54F6480F8EA6480986E
:100AA6005020EB25E0FFEA33FE742A2FF58274000E
:100AB6003EF583E0FEA3E0FF120D120BBB00010A18
:100AC60080D1752800752901120CF0AF50AE4F0287
:020AD60008FE18
:10072100E4F547F548F549F54AF54BF54C853F4D5C
:1007310085404EFB7A007935120D288E498F4AC3C8
:10074100E5489406E547648094805077C3E54C956D
:100751004AE5496480F8E54B64809850667B007AED
:10076100007935C3120B56EFC39430404B7B007AAE
:10077100007935120B56EFD39439503C7B007A0047
:100781007935C3E54E9548FDE54D9547FC120B6063
:10079100EF24D0FDE434FFFCE54825E0FFE54733D5
:1007A100FE742A2FF58274003EF583ECF0A3EDF080
:1007B1000548E54870020547054CE54C7081054B3D
:0D07C100020740120CA7AF48AE47020A9293
:040A3B007F017E00B9
:040A3F008E4B8F4CFF
:100A4300E4F54DF54EFBFAAE4BAF4C7C007D141232
:100A530003D1C3EB9FEA9E5035309820AE4DAF4E85
:100A63007D0A1203E374102DF58274003CF583E5CF
:100A730099F0054EE54E7002054DC298308FC80BB4
:0E0A8300BB00010A758D4CE4F58BC28F80B963
:010A91002242
:060649007BFF7A0979EE47
:10064F00754B00754C01E4F54DF54EF54FF55078AF
:10065F00517C00FD12059FE54C454B7003020720AE
:10066F00E4F54DF54EC3E54E940AE54D940050E781
:10067F007410254EF582E43400F583E0655170392E
:10068F00E54E2401FFE4354DFE7C007D0A1203E3A5
:10069F0074102DF58274003CF583E0B5521B754D37
:1006AF0000754E0AE4F54BF54CFE7F0A7D7A7B010F
:1006BF007A0079101205BC809EE54E6409454D7095
:1006CF0042E4F54FF550C2A6C2A774242550F58217
:1006DF00E43400120D3D742E2550F8E6F580D2A7B4
:1006EF00C2A77F027E00120CF40550E55070020580
:1006FF004FC39406E54F940040CCE4F580D2A6C2D8
:10070F00A680BE054EE54E6003020674054D020637
:01071F007465
:0107200022B6
:1007CE00754700754801E4F549F54AC2AC7F0AFE4B
:1007DE00120CF4D299E4FFFE1200037BFF7A097922
:1007EE00D51200887F037E00120A3F7BFF7A0979BB
:1007FE00DD12064F120CF07F017E001200037BFF0C
:10080E007A0979E0120088120A3B120649120CF09E
:10081E007F027E001200037BFF7A0979F1120088B5
:10082E00120A3B120649120CF07F037E00120003DF
:10083E007BFF7A0979FE120088120A3B12064912D2
:10084E000CF07F047E001200037BFF7A0A792F12D0
:10085E000088120A3B120CF07F057E00120003C2C4
:03086E0099D2AC70
:010871002264
:100C550075CBFF75CADC85CBCD85CACCE4F5877528
:100C6500C83475C901759850D29C758910758D4C1D
:0B0C7500F58BD28EC2ACC299D2AF2228
:100C2800120C557FD07E07120CF4D299D2AC120C5C
:100C3800A7E599B44009E52B452A6003120721204E
:0D0C4800B4EFE4F5901207CE7590FF80E444
:0300000002087281
:0C087200787FE4F6D8FD75815E0208B9BD
:10038200BB010CE58229F582E5833AF583E0225030
:1003920006E92582F8E622BBFE06E92582F8E2227A
:0D03A200E58229F582E5833AF583E4932294
:1003AF00F8BB010DE58229F582E5833AF583E8F084
:1003BF00225006E92582C8F622BBFE05E92582C830
:0203CF00F22218
:1003D100EF8DF0A4A8F0CF8CF0A428CE8DF0A42E40
:0203E100FE22FA
:1003E300BC000BBE0029EF8DF084FFADF022E4CCFE
:1003F300F875F008EF2FFFEE33FEEC33FCEE9DECC7
:10040300984005FCEE9DFE0FD5F0E9E4CEFD22ED0C
:10041300F8F5F0EE8420D21CFEADF075F008EF2F56
:10042300FFED33FD4007985006D5F0F222C398FD47
:050433000FD5F0EA22E4
:10043800C2D5EC30E709B2D5E4C39DFDE49CFCEEDF
:1004480030E715B2D5E4C39FFFE49EFE1203E3C371
:10045800E49DFDE49CFC80031203E330D507C3E46C
:060468009FFFE49EFE224E
:10046E00BB0110E58229F582E5833AF583E0F5F0CC
:10047E00A3E0225009E92582F886F008E622BBFEA9
:10048E000AE92582F8E2F5F008E222E5832AF583EF
:08049E00E993F5F0A3E99322B4
:1004A600F8BB0111E58229F582E5833AF583E8F088
:1004B600E5F0A3F0225009E92582C8F608A6F02245
:0D04C600BBFE09E92582C8F2E5F008F2222C
:10002600E55A244EF8E6055A22784B300702784EF8
:10003600E475F0011206130205E82000EB7F2ED2CC
:10004600008018EF540F2490D43440D4FF30040BB2
:10005600EF24BFB41A0050032461FFE55B6002156C
:100066005B055EE55E7002055D30070D784BE47555
:10007600F001120613EF020601020C807403D20788
:100086008003E4C207F55A8B4B8A4C894DE4F55B35
:10009600F55DF55EE55B60077F2012006180F57512
:1000A6005CFFC201C200C202C203C205C206C20888
:1000B60012002FFF700D3007057F00120072AF5E31
:1000C600AE5D22B4255FC2D5C20412002FFF24D034
:1000D600B40A00501A75F00A785B30D50508B6FFE9
:1000E6000106C6A426F620D5047002D20380D924C0
:1000F600CFB41A00EF5004C2E5D204020272D20154
:1001060080C6D20080C0D20280BCD2D580BAD205C9
:1001160080B47F201200612002077401B55B0040A5
:10012600F1120026FF12006102009AD208D2068060
:1001360095120026FB120026FA120026F94A4B7089
:100146000679437A037BFF20022EE55B602A7E0058
:100156008E8275830012038260060EEE655C70F077
:10016600C2D5EBC0E0EAC0E0E9C0E0EE1202B9D0C9
:10017600E0F9D0E0FAD0E0FB1205E8FF60AAEBC098
:10018600E0EAC0E0E9C0E0120061D0E02401F9D065
:10019600E03400FAD0E0FBE55C0460DCD55CD98095
:1001A600877BFF7A0279B5D202809C79108002792A
:1001B60008C206C2088008D2D5790A8004790AC224
:1001C600D5E55C047002F55CE4FAFDFEFF1200263C
:1001D600FC7B08200113120026FD7B1030000A125A
:1001E6000026FE120026FF7B20EC3382D592D550E6
:1001F60013C3E43000069FFFE49EFEE42001039D46
:10020600FDE49CFCE4CBF8C201EC700CCFCECDCC67
:10021600E824F8F870F38017C3EF33FFEE33FEEDF2
:1002260033FDEC33FCEB33FB994002FB0FD8E9EBD3
:10023600300105F8D0E0C448B201C0E00AEC4D4EEA
:100246004F78207B0070C2EAB55C0040BCC0E0126B
:1002560002BBD0F0D0E0200104C4C0E0C4B201C0AB
:10026600F012004AD0F0D5F0EB02009A12062301F4
:10027600375301B15801084C01044201B54F01BD85
:0F0286004401BD49011D4301C35501A74601A70E
:100295004501A747036350010C2D01102E01332B97
:1002A500011423013120034C2A00CC480000012B06
:1002B5003F3F3F00790AA2D5200314300509B91044
:1002C500020404B9080104A2D52006025001042045
:1002D50002689202B55B005034C0E07F20300319FC
:1002E5007F30A20272067205500F120312C202C2BB
:1002F50006C205C2087F30800F300503E9C0E01251
:100305000061300503D0E0F9D0E0B55BCC300517CE
:100315007F30B9100C1200617F583004077F788058
:1003250003B908031200613002057F2D0200617FC9
:10033500202008F87F2B2006F322920280CF286E1A
:10034500756C6C2900D2011200263001F8C20178C3
:100355005B30D50108F60200CC2D504349581200F8
:10036500262403B405004001E490035E9312005275
:0D037500743A120052D203755B040201B10C
:1004D300E709F60870FA8046E709F20870FA803EE9
:1004E30088828C83E709F0A370FA807EE309F6081B
:1004F30070FA8076E309F20870FA806E88828C8342
:10050300E309F0A370FA806289828A83E0A3F60884
:1005130070FA805689828A83E0A3F20870FA804ACF
:1005230080D280FA80C680D4806580F280318010CA
:1005330080A680EA809A80A880DA80E280CA80312F
:1005430089828A83ECFAE493A3C8C582C8CCC583A5
:10055300CCF0A3C8C582C8CCC583CC70E9800D8913
:10056300828A83E493A3F60870F9ECFAA9F0EDFB11
:100573002289828A83ECFAE0A3C8C582C8CCC583EA
:10058300CCF0A3C8C582C8CCC583CC70EA80DD8912
:10059300828A83E493A3F20870F980CE88F0ED2475
:1005A30002B4040050C4F582EB2402B4040050BA30
:0905B300232345822390052373E4
:100D2800E4FFFE1205E8600C0FEF70010E09E97090
:050D3800F20A80EF2229
:1005BC00EF4E6012EF60010EEDBB010B89828A8356
:1005CC00F0A3DFFCDEFA2289F05007F709DFFCA963
:0C05DC00F022BBFEFCF309DFFCA9F022BA
:10087E00020C28E493A3F8E493A34003F68001F25C
:10088E0008DFF48029E493A3F85407240CC8C3337B
:10089E00C4540F4420C8834004F456800146F6DF4A
:1008AE00E4800B0102040810204080900AD8E47EF8
:1008BE00019360BCA3FF543F30E509541FFEE4933F
:1008CE00A360010ECF54C025E060A840B8E493A306
:1008DE00FAE493A3F8E493A3C8C582C8CAC583CA31
:1008EE00F0A3C8C582C8CAC583CADFE9DEE780BEE9
:010B170000DD
:1005E800BB010689828A83E0225002E722BBFE0211
:0905F800E32289828A83E4932244
:10060100BB010689828A83F0225002F722BBFE01D8
:02061100F322D2
:10061300FAE6FB0808E6F925F0F618E6CA3AF622E8
:10062300D083D082F8E4937012740193700DA3A366
:1006330093F8740193F5828883E47374029368607A
:06064300EFA3A3A380DF7A
:100C8000EFB40A07740D120C8B740A309811A899EE
:100C9000B8130CC2983098FDA899C298B811F630D4
:070CA00099FDC299F59922AC
:00000001FF
