:1005150002200000024E00000222000010103F06DB
:100525005B4F666D7D077F6F777C395E7971062439
:06053500FEFDFBF7EFDF05
:040454008E588F59D6
:1004580085585A85595BD3E55B9400E55A9400406A
:1004680025755C00755D6ED3E55D9400E55C9400D0
:10047800400AE55D155D7002155C80EBE55B155B78
:060488007002155A80D03D
:01048E00224B
:100003008E748F75754E00754F018575997F0A7EC5
:0E00130000120454E54F454E70FA2280F72289
:100556007B007A007938AD9912036D7522007523F8
:0805660001752000752100223F
:0300230002048F45
:10048F00C0E0C0F0C083C082C0D075D00830990CD6
:10049F00C2AC754E00754F00C299D2AC309809C2EC
:1004AF00AC120556C298D2ACD0D0D082D083D0F047
:0304BF00D0E03258
:1004C2008B718A7289737E007F087D7A7B007A0045
:1004D2007938120110AB71AA72A9737582147583EF
:0A04E2000074FF75F0FF1200E32222
:10036D008B698A6A896B8D6CAB69AA6AA96B758278
:10037D00147583001200ABFFAEF0EF2401FFEE34D5
:10038D0000FE7C007D14120075AB69AA6AA96B751D
:10039D008214758300EC8DF01200E3AB69AA6AA993
:1003AD006B7582147583001200ABFFAEF0AB69AABA
:0D03BD006AA96B8F828E83E56C12005322BB
:1003CA008B648A6589668C678D68C3E567648094E7
:1003DA00805019AB64AA65A966E5682415FFE5672C
:1003EA003400FE8F828E83120026FF22AE67AF682A
:1003FA007C007D14120075AB64AA65A9668D828C97
:06040A0083120026FF2210
:040583007580FF225E
:040305008E5E8F5F1A
:10030900E5214520605D20985A756200756300C338
:10031900E563955FE55E6480F8E56264809850E086
:10032900C2A6C2A7AF63EF25E0242AF8E6F5600864
:10033900E6F561AF6174102FF8E6FF8F80D2A6C28F
:10034900A6120583AF6374242FF8E6FF8F80D2A726
:10035900C2A77F027E001204540563E5637002059B
:030369006280AC03
:01036C00226E
:040410008E6D8F6EF0
:10041400756F00757000C3E570956EE56F956D504E
:100424001AAF70EF25E0242AF8E6FE08E6FF120072
:10043400030570E5707002056F80DB75200075217F
:0F044400017F647E00120454AF6EAE6D1203058B
:010453002286
:1001AA0075500075510075520075530075540075ED
:1001BA005500E54D24FFF557E54C34FFF5567B0015
:1001CA007A00793812056E8E528F53C3E551940620
:1001DA00E550648094804003020268C3E555955354
:1001EA00E5526480F8E55464809850727B007A0086
:1001FA007938C3E5579555FDE5569554FC1203CA5F
:10020A00EFC39430404D7B007A007938C3E55795A7
:10021A0055FDE5569554FC1203CAEFD39439503371
:10022A007B007A007938C3E5579551FDE55695501C
:10023A00FC1203CA7E00EF24D0FFEE34FFFEAD515C
:10024A00ED25E0242AF8A60608A6070551E551700F
:10025A000205500555E555700205540201D57B008B
:0E026A007A0079381204C2AF51AE501204105F
:010278002263
:10053C00759850758700758920758DFD858D8BD2CA
:0A054C008ED29CD2ACC299D2AF222D
:1004EC0012053C7B007A0079381204C27B007A003A
:1004FC007938AD4DAC4C1203CAEFB440EFE523454F
:09050C002260E91201AA80E42238
:0300000002027980
:0C027900787FE4F6D8FD7581750202C0A4
:10002600BB010CE58229F582E5833AF583E022508F
:1000360006E92582F8E622BBFE06E92582F8E222D9
:0D004600E58229F582E5833AF583E49322F3
:10005300F8BB010DE58229F582E5833AF583E8F0E3
:10006300225006E92582C8F622BBFE05E92582C88F
:02007300F22277
:10007500C2D5EC30E709B2D5E4C39DFDE49CFCEEA6
:1000850030E715B2D5E4C39FFFE49EFE120155C3C8
:10009500E49DFDE49CFC800312015530D507C3E4C3
:0600A5009FFFE49EFE2215
:1000AB00BB0110E58229F582E5833AF583E0F5F093
:1000BB00A3E0225009E92582F886F008E622BBFE70
:1000CB000AE92582F8E2F5F008E222E5832AF583B6
:0800DB00E993F5F0A3E993227B
:1000E300F8BB0111E58229F582E5833AF583E8F04F
:1000F300E5F0A3F0225009E92582C8F608A6F0220C
:0D010300BBFE09E92582C8F2E5F008F222F2
:10056E00E4FFFE12013C600C0FEF70010E09E97002
:05057E00F20A80EF22EB
:10011000EF4E6012EF60010EEDBB010B89828A8306
:10012000F0A3DFFCDEFA2289F05007F709DFFCA913
:0C013000F022BBFEFCF309DFFCA9F0226A
:100285000204ECE493A3F8E493A34003F68001F29F
:1002950008DFF48029E493A3F85407240CC8C3337A
:1002A500C4540F4420C8834004F456800146F6DF49
:1002B500E4800B0102040810204080900515E47EBF
:1002C500019360BCA3FF543F30E509541FFEE4933E
:1002D500A360010ECF54C025E060A840B8E493A305
:1002E500FAE493A3F8E493A3C8C582C8CAC583CA30
:1002F500F0A3C8C582C8CAC583CADFE9DEE780BEE8
:01053B0000BF
:10013C00BB010689828A83E0225002E722BBFE02C1
:09014C00E32289828A83E49322F4
:10015500BC000BBE0029EF8DF084FFADF022E4CC8E
:10016500F875F008EF2FFFEE33FEEC33FCEE9DEC57
:10017500984005FCEE9DFE0FD5F0E9E4CEFD22ED9D
:10018500F8F5F0EE8420D21CFEADF075F008EF2FE7
:10019500FFED33FD4007985006D5F0F222C398FDD8
:0501A5000FD5F0EA2275
:00000001FF
