:1000C400020800005000003F065B4F666D7D077F0D
:0F00D4006F777C395E7971060AFEFDFBF7EFDF6F
:1000E400758902758CA4E4F58AC2A9C28CC28DC23A
:0400F400ACD2AF22B9
:03000B000200F8F8
:0F00F800C0E00509E50970020508C28DD0E032AD
:10009A001200E4D2A9D28CE509B420FBE508B44EDB
:1000AA00F6C2A9C2A6C2A775807DD2A6C2A67580CD
:0A00BA00FF7580FED2A7C2A780DD0B
:0300000002000EED
:0C000E00787FE4F6D8FD75810F020055E4
:10001A0002009AE493A3F8E493A34003F68001F262
:10002A0008DFF48029E493A3F85407240CC8C333E7
:10003A00C4540F4420C8834004F456800146F6DFB6
:10004A00E4800B01020408102040809000C4E47E82
:10005A00019360BCA3FF543F30E509541FFEE493AB
:10006A00A360010ECF54C025E060A840B8E493A372
:10007A00FAE493A3F8E493A3C8C582C8CAC583CA9D
:10008A00F0A3C8C582C8CAC583CADFE9DEE780BE55
:0100E300001C
:00000001FF
