:1004570002260000024D000002280000022A0000C8
:10046700013271062077736164620010103F065BEA
:100477004F666D7D077F6F777C395E7971062CFE3D
:05048700FDFBF7EFDFB3
:1004F500E52A702CE52B24FE600F1460111460139F
:100505002403701C7590FE800D7590FD8008759014
:10051500FB80037590F77F207E031200037590FF23
:0105250022B3
:10054B00E52A701FE52B24FE600E14600F1460105B
:10055B002403700F7590FE227590FD227590FB227F
:04056B007590F7226E
:0C05CA00C2A37FE87E03120003D2A3222C
:10039F00E532B52008752A00752B018025E532B5A9
:1003AF002108752A00752B028018E532B5220875D1
:1003BF002A00752B03800BE532B52309752A0075CA
:0E03CF002B040204F5E532B524031205CA2200
:10000300D3EF9400EE940040147D6E7C00ED1D70E0
:0D001300011CED4C70F7EF1F70E61E80E33E
:0100200022BD
:10058900754D00754E018F997F0A7E00120003E5B3
:060599004E454D70FA22F0
:1002D700E4F526F527E599B47114E5326471600EEB
:1002E700E5326462600812054B7532718023E59927
:1002F70064776017E59964736011E5996461600B31
:10030700E59964646005E599B4620F859932120333
:100317009F7B007A00794102052CE599C394304010
:1003270018E599D3943950117B007A007941AD993A
:0A03370012048D75280075290122BB
:030023000204C212
:1004C200C0E0C0F0C083C082C0D075D00830990CA3
:1004D200C2AC754D00754E00C299D2AC309809C2BB
:1004E200AC1202D7C298D2ACD0D0D082D083D0F096
:0304F200D0E03225
:060526007B007A00794120
:10052C008B5B8A5C895D7E007F087D7A120110AB43
:0F053C005BAA5CA95D90000A74FFF5F00200E372
:10048D008B4F8A5089518D5290000A1200AB240176
:10049D00FFE435F0FE7C007D0A12007590000AEC39
:1004AD008DF01200E390000A1200ABF58285F08307
:0504BD00E552020053AE
:0A03DD00E55A9558FDE5599557FCC7
:1003E7008B5B8A5C895DC3EC64809480500B740BD3
:1003F7002DF582E43CF5838015AE04AF057C007DC6
:100407000A120075AB5BAA5CA95D8D828C83120012
:0304170026FF229B
:0405D6007580FF220B
:040341008F828E8396
:10034500E5274526604C209849E4FAFBC3EB9582E6
:10035500E5836480F8EA64809850E5C2A6C2A7EBFD
:1003650025E02433F8E6F55B08E6F55C2410F8E6AD
:10037500F580D2A6C2A61205D6742C2BF8E6F58018
:10038500D2A7C2A77F027E001200030BBB00010AA1
:0903950080BAE4F580D2A6C2A6EC
:01039E00223C
:04041A00AB07AA067C
:10041E00900000C3E5829BEA6480F8E583648098CF
:10042E005013AF82EF25E02433F8E6FE08E6FF1204
:10043E000589A380DE7526007527017F647E001274
:09044E000003AF03AE02020341FA
:1001AA00E4F553F554F555F556F557F558854B5979
:1001BA00854C5AFB7A0079411205B58E558F56C384
:1001CA00E5549406E55364809480506BC3E55895D2
:1001DA0056E5556480F8E557648098505A7B007A52
:1001EA00007941C31203DDEFC39430403F7B007AAC
:1001FA000079411203DDEFD3943950307B007A0045
:10020A007941C3E55A9554FDE5599553FC1203E724
:10021A00EF24D0FFE434FFFEE55425E02433F8A6AA
:10022A000608A6070554E554700205530558E55813
:10023A00708D05570201C9120526AF54AE53020448
:01024A001A99
:10056F00759850E4F587758920758DFD858D8BD233
:0A057F008ED29CD2ACC299D2AF22FA
:10059F0012056F120526E599B440FBE52945286041
:0605AF00F51201AA80F024
:0300000002024BAE
:0C024B00787FE4F6D8FD75815D02029218
:10002600BB010CE58229F582E5833AF583E022508F
:1000360006E92582F8E622BBFE06E92582F8E222D9
:0D004600E58229F582E5833AF583E49322F3
:10005300F8BB010DE58229F582E5833AF583E8F0E3
:10006300225006E92582C8F622BBFE05E92582C88F
:02007300F22277
:10007500C2D5EC30E709B2D5E4C39DFDE49CFCEEA6
:1000850030E715B2D5E4C39FFFE49EFE120155C3C8
:10009500E49DFDE49CFC800312015530D507C3E4C3
:0600A5009FFFE49EFE2215
:1000AB00BB0110E58229F582E5833AF583E0F5F093
:1000BB00A3E0225009E92582F886F008E622BBFE70
:1000CB000AE92582F8E2F5F008E222E5832AF583B6
:0800DB00E993F5F0A3E993227B
:1000E300F8BB0111E58229F582E5833AF583E8F04F
:1000F300E5F0A3F0225009E92582C8F608A6F0220C
:0D010300BBFE09E92582C8F2E5F008F222F2
:1005B500E4FFFE12013C600C0FEF70010E09E970BB
:0505C500F20A80EF22A4
:10011000EF4E6012EF60010EEDBB010B89828A8306
:10012000F0A3DFFCDEFA2289F05007F709DFFCA913
:0C013000F022BBFEFCF309DFFCA9F0226A
:1002570002059FE493A3F8E493A34003F68001F219
:1002670008DFF48029E493A3F85407240CC8C333A8
:10027700C4540F4420C8834004F456800146F6DF77
:10028700E4800B0102040810204080900457E47EAC
:10029700019360BCA3FF543F30E509541FFEE4936C
:1002A700A360010ECF54C025E060A840B8E493A333
:1002B700FAE493A3F8E493A3C8C582C8CAC583CA5E
:1002C700F0A3C8C582C8CAC583CADFE9DEE780BE16
:01048C00006F
:10013C00BB010689828A83E0225002E722BBFE02C1
:09014C00E32289828A83E49322F4
:10015500BC000BBE0029EF8DF084FFADF022E4CC8E
:10016500F875F008EF2FFFEE33FEEC33FCEE9DEC57
:10017500984005FCEE9DFE0FD5F0E9E4CEFD22ED9D
:10018500F8F5F0EE8420D21CFEADF075F008EF2FE7
:10019500FFED33FD4007985006D5F0F222C398FDD8
:0501A5000FD5F0EA2275
:00000001FF
