:1002A500021A000006127773616471620218000079
:04023E008E1C8F1D66
:10024200851C1E851D1FD3E51F9400E51E940040EA
:100252002575200075216ED3E5219400E5209400D8
:10026200400AE52115217002152080EBE51F151FBC
:060272007002151E80D091
:010278002263
:10000300759850758700758920758DFD858D8BD208
:0A0013008ED29CD2ACC299D2AF226B
:1001EA00E51B851AF01201910206000102140002B1
:1001FA0002220003023000040000023D7590FE7FD7
:10020A00D07E0712023E7590FF227590FD7FD07E48
:10021A000712023E7590FF227590FB7FD07E07126F
:10022A00023E7590FF227590F77FD07E0712023E3C
:04023A007590FF229A
:10027900E51B851AF012019102950001029900020D
:10028900029D000302A10004000002A47590FE2251
:0C0299007590FD227590FB227590F722F5
:0C02B600C2A37FE87E0312023ED2A32206
:1000B200E510B51215751A00751B01E511B5160587
:1000C200120279805B1201EA8056E510B5131575AC
:1000D2001A00751B02E511B516051202798041124C
:1000E20001EA803CE510B51415751A00751B03E58D
:1000F20011B5160512027980271201EA8022E51055
:10010200B51515751A00751B04E511B51605120211
:1001120079800D1201EA8008E510B517031202B6C4
:100122007E007F027D007B007A0079101201BE22E0
:03002300020132A5
:0D013200C0E0C0F0C083C082C0D075D0080E
:10013F007518007519007590FF30983B752200E512
:10014F0022C39402502E2098170519E51970020545
:10015F0018D3E51994D0E518940740EA800280E699
:10016F00751800751900AF2274102FF8A699C29850
:07017F00052280CB1200B243
:0B018600D0D0D082D083D0F0D0E03287
:06001D0012000380FE2228
:03000000020026D5
:0C002600787FE4F6D8FD75812202006DA1
:10019100D083D082F8E4937012740193700DA3A3FD
:1001A10093F8740193F5828883E473740293B5F034
:0D01B100067403936860E9A3A3A3A380D89C
:1001BE00EF4E6012EF60010EEDBB010B89828A8358
:1001CE00F0A3DFFCDEFA2289F05007F709DFFCA965
:0C01DE00F022BBFEFCF309DFFCA9F022BC
:1000320002001DE493A3F8E493A34003F68001F2C7
:1000420008DFF48029E493A3F85407240CC8C333CF
:10005200C4540F4420C8834004F456800146F6DF9E
:10006200E4800B01020408102040809002A5E47E87
:10007200019360BCA3FF543F30E509541FFEE49393
:10008200A360010ECF54C025E060A840B8E493A35A
:10009200FAE493A3F8E493A3C8C582C8CAC583CA85
:1000A200F0A3C8C582C8CAC583CADFE9DEE780BE3D
:0102B5000048
:00000001FF
