:100ACE0041542B5253540A0049500041542B434970
:100ADE00504D4F44453D310A004F4B0041542B437E
:100AEE0049504D55583D300A0041542B43495053FF
:100AFE00544152543D22554450222C223139322E2B
:100B0E003136382E3139392E323235222C383038B2
:100B1E00302C313131312C300A0041542B434950A5
:060B2E0053454E440A008D
:100B8B00022C000002470000022E00000230000081
:100B9B000138710245003C022A0064022800090258
:100BAB00490009024B000906227773616462005009
:100BBB0000003F065B4F666D7D077F6F777C395E6C
:100BCB0079710632FEFDFBF7EFDF460024795050BA
:030BDB005C503F2C
:08098A008E4D8F4E8C4F8D50F5
:10099200E4FFFEFDFCD3ED9546E5456480F8EC648A
:1009A20080985050308F0D0FBF00010E758D4CE4B2
:1009B200F58BC28FEF64644E7002FEFFD3EF945A40
:1009C200EE6480948050057580018003E4F580D345
:1009D200EF9450EE6480948050057580028003E4A9
:1009E200F580308DB00DBD00010C758C4CE4F58A9C
:0409F200C28D80A191
:0109F60022DE
:100CA000E5307037E53124FE601214601914601FBE
:100CB000240370277D327C007F3180067D347C00E8
:100CC0007F387E00800F7D327C00E4FFFE8006E4EA
:0C0CD000FDFC7F31FE12098AE4F5902241
:100D9D00E530701FE53124FE600E14600F146010F5
:100DAD002403700F7590132275902C2275901222CA
:040DBD0075901122FA
:0C0E3200C2A37FE87E03120DC5D2A322EC
:100C2500E538B522087530007531018025E538B500
:100C350023087530007531028018E538B52408752C
:100C45003000753103800BE538B525097530007521
:0E0C55003104020CA0E538B52603120E32223F
:040DC1007F647E00CD
:100DC500D3EF9400EE940040147D7D7C00ED1D7002
:0D0DD500011CED4C70F7EF1F70E61E80E36F
:010DE20022EE
:100DFA007547007548018F997F0A7E00120DC5E577
:060E0A0048454770FA2282
:100A6400E4F52CF52DE599B47114E5386471600E44
:100A7400E53864626008120D9D7538718023E5992C
:100A840064776017E59964736011E5996461600B9C
:100A9400E59964646005E599B4620F859938120C90
:100AA400257B007A007939020003E599C39430402C
:100AB40018E599D3943950117B007A007939AD99AE
:0A0AC400120CDC752E00752F0122C4
:03002300020D11BA
:100D1100C0E0C0F0C083C082C0D075D00830990C4B
:100D2100C2AC754700754800C299D2AC309809C26F
:100D3100AC120A64C298D2ACD0D0D082D083D0F0A9
:030D4100D0E032CD
:100003008B598A5A895B7E007F087D7A1205BCABC7
:0F00130059AA5AA95B90000A74FFF5F00204A6DF
:100CDC008B4D8A4E894F8D5090000A12046E240160
:100CEC00FFE435F0FE7C007D0A12043890000AEC1B
:100CFC008DF01204A690000A12046EF58285F08322
:050D0C00E5500203AFF9
:0A0C6300E5589556FDE5579555FC40
:100C6D008B598A5A895BC3EC64809480500B740B4A
:100C7D002DF582E43CF5838015AE04AF057C007D37
:100C8D000A120438AB59AA5AA95B8D828C831203C0
:030C9D0082FF22B1
:090E2500F583E0F580D2A6C2A617
:040E2E007580FF22AA
:100DE300C2A6C2A774002FF58274003E120E258599
:070DF3003280D2A7C2A72243
:0409F7008E5B8F5C28
:1009FB00C2ACE52D452C605E20985BE4FBFAC3EBA3
:100A0B00955CE55B6480F8EA6480985040C2A6C2AE
:100A1B00A7EB25E0FFEA33FE742A2FF58274003E24
:100A2B00F583E0F55DA3E0F55E2400F582740035F7
:100A3B005D120E2574322BF8E6F580D2A7C2A77F84
:100A4B00027E00120DC50BBB00010A80B1E4F580DC
:080A5B00D2A6C2A6809CD2AC19
:010A63002270
:040BDF008E598F5A42
:100BE300E4FBFAC3EB955AE5596480F8EA6480980C
:100BF3005020EB25E0FFEA33FE742A2FF5827400C0
:100C03003EF583E0FEA3E0FF120DFA0BBB00010AE1
:100C130080D1752C00752D01120DC1AF5AAE59024A
:020C230009F7CF
:10072100E4F551F552F553F554F555F55685435712
:10073100854458FB7A007939120E108E538F54C3B9
:10074100E5529406E551648094805077C3E556954F
:1007510054E5536480F8E55564809850667B007ACF
:10076100007939C3120C63EFC39430404B7B007A9C
:10077100007939120C63EFD39439503C7B007A0035
:100781007939C3E5589552FDE5579551FC120C6D29
:10079100EF24D0FDE434FFFCE55225E0FFE55133C1
:1007A100FE742A2FF58274003EF583ECF0A3EDF080
:1007B1000552E552700205510556E5567081055501
:1007C1000207407B007A007939120003AF52AE5123
:0307D100020BDF39
:040B34007F017E00BF
:040B38008E558F56F1
:100B3C00E4F557F558FBFAAE55AF567C007D141210
:100B4C0003D1C3EB9FEA9E5035309820AE57AF5877
:100B5C007D0A1203E374102DF58274003CF583E5D5
:100B6C0099F00558E55870020557C298308FC80B9C
:0E0B7C00BB00010A758D4CE4F58BC28F80B969
:010B8A002248
:060649007BFF7A0A79E74D
:10064F00755500755601E4F557F558F559F55A7873
:10065F005B7C00FD12059FE5564555700302072090
:10066F00E4F557F558C3E558940AE557940050E759
:10067F0074102558F582E43400F583E0655B70391A
:10068F00E5582401FFE43557FE7C007D0A1203E391
:10069F0074102DF58274003CF583E0B55C1B755723
:1006AF000075580AE4F555F556FE7F0A7D7A7B01F1
:1006BF007A0079101205BC809EE558640945577081
:1006CF0042E4F559F55AC2A6C2A77424255AF582F9
:1006DF00E43400120E257432255AF8E6F580D2A7BD
:1006EF00C2A77F027E00120DC5055AE55A7002059A
:1006FF0059C39406E559940040CCE4F580D2A6C2C4
:10070F00A680BE0558E55860030206740557020619
:01071F007465
:0107200022B6
:1007D400755100755201E4F553F554C2AC7F0AFE1D
:1007E400120DC5D299E4FFFE120DE37BFF7A0A795C
:1007F400CE1200887F037E00120B387BFF7A0A79C1
:10080400D612064F120DC17F017E00120DE37BFF4D
:100814007A0A79D9120088120B34120649120DC1D2
:100824007F027E00120DE37BFF7A0A79EA120088C8
:10083400120B34120649120DC17F037E00120DE320
:100844007BFF7A0A79F7120088120B3412064912D8
:100854000DC17F047E00120DE37BFF7A0B79281211
:100864000088120B34120DC17F057E00120DE3C205
:0308740099D2AC6A
:01087700225E
:100D440075CBFF75CADC85CBCD85CACCE4F5877538
:100D5400C83475C901759850D29C758911758D4C2C
:100D6400F58BD28E758C4CF58AD28CC2ACC299D2DA
:020D7400AF22AC
:10090400120D447FD07E07120DC5D299D2ACE4F506
:1009140090FB7A007939120003E599B44009E52F78
:10092400452E600312072120B406E4F5901207D483
:1009340020B627E5292401FFE43528FEEFB54A0C4B
:10094400EEB54908754900754A01800E054AE54A25
:1009540070020549FFAE49120DE320B7BCE5292416
:1009640001FFE43528FEEFB54C0CEEB54B08754B92
:1009740000754C0180A3054CE54C7002054BFFAE9D
:060984004B120DE380930D
:030000000208787B
:0C087800787FE4F6D8FD7581680208BFA7
:10038200BB010CE58229F582E5833AF583E0225030
:1003920006E92582F8E622BBFE06E92582F8E2227A
:0D03A200E58229F582E5833AF583E4932294
:1003AF00F8BB010DE58229F582E5833AF583E8F084
:1003BF00225006E92582C8F622BBFE05E92582C830
:0203CF00F22218
:1003D100EF8DF0A4A8F0CF8CF0A428CE8DF0A42E40
:0203E100FE22FA
:1003E300BC000BBE0029EF8DF084FFADF022E4CCFE
:1003F300F875F008EF2FFFEE33FEEC33FCEE9DECC7
:10040300984005FCEE9DFE0FD5F0E9E4CEFD22ED0C
:10041300F8F5F0EE8420D21CFEADF075F008EF2F56
:10042300FFED33FD4007985006D5F0F222C398FD47
:050433000FD5F0EA22E4
:10043800C2D5EC30E709B2D5E4C39DFDE49CFCEEDF
:1004480030E715B2D5E4C39FFFE49EFE1203E3C371
:10045800E49DFDE49CFC80031203E330D507C3E46C
:060468009FFFE49EFE224E
:10046E00BB0110E58229F582E5833AF583E0F5F0CC
:10047E00A3E0225009E92582F886F008E622BBFEA9
:10048E000AE92582F8E2F5F008E222E5832AF583EF
:08049E00E993F5F0A3E99322B4
:1004A600F8BB0111E58229F582E5833AF583E8F088
:1004B600E5F0A3F0225009E92582C8F608A6F02245
:0D04C600BBFE09E92582C8F2E5F008F2222C
:10002600E5642458F8E605642278553007027858C6
:10003600E475F0011206130205E82000EB7F2ED2CC
:10004600008018EF540F2490D43440D4FF30040BB2
:10005600EF24BFB41A0050032461FFE56560021562
:10006600650568E5687002056730070D7855E47523
:10007600F001120613EF020601020D767403D20791
:100086008003E4C207F5648B558A568957E4F56503
:10009600F567F568E56560077F2012006180F575F4
:1000A60066FFC201C200C202C203C205C206C2087E
:1000B60012002FFF700D3007057F00120072AF6827
:1000C600AE6722B4255FC2D5C20412002FFF24D02A
:1000D600B40A00501A75F00A786530D50508B6FFDF
:1000E6000106C6A426F620D5047002D20380D924C0
:1000F600CFB41A00EF5004C2E5D204020272D20154
:1001060080C6D20080C0D20280BCD2D580BAD205C9
:1001160080B47F201200612002077401B56500409B
:10012600F1120026FF12006102009AD208D2068060
:1001360095120026FB120026FA120026F94A4B7089
:100146000679437A037BFF20022EE565602A7E004E
:100156008E8275830012038260060EEE656670F06D
:10016600C2D5EBC0E0EAC0E0E9C0E0EE1202B9D0C9
:10017600E0F9D0E0FAD0E0FB1205E8FF60AAEBC098
:10018600E0EAC0E0E9C0E0120061D0E02401F9D065
:10019600E03400FAD0E0FBE5660460DCD566D98081
:1001A600877BFF7A0279B5D202809C79108002792A
:1001B60008C206C2088008D2D5790A8004790AC224
:1001C600D5E566047002F566E4FAFDFEFF12002628
:1001D600FC7B08200113120026FD7B1030000A125A
:1001E6000026FE120026FF7B20EC3382D592D550E6
:1001F60013C3E43000069FFFE49EFEE42001039D46
:10020600FDE49CFCE4CBF8C201EC700CCFCECDCC67
:10021600E824F8F870F38017C3EF33FFEE33FEEDF2
:1002260033FDEC33FCEB33FB994002FB0FD8E9EBD3
:10023600300105F8D0E0C448B201C0E00AEC4D4EEA
:100246004F78207B0070C2EAB5660040BCC0E01261
:1002560002BBD0F0D0E0200104C4C0E0C4B201C0AB
:10026600F012004AD0F0D5F0EB02009A12062301F4
:10027600375301B15801084C01044201B54F01BD85
:0F0286004401BD49011D4301C35501A74601A70E
:100295004501A747036350010C2D01102E01332B97
:1002A500011423013120034C2A00CC480000012B06
:1002B5003F3F3F00790AA2D5200314300509B91044
:1002C500020404B9080104A2D52006025001042045
:1002D50002689202B565005034C0E07F20300319F2
:1002E5007F30A20272067205500F120312C202C2BB
:1002F50006C205C2087F30800F300503E9C0E01251
:100305000061300503D0E0F9D0E0B565CC300517C4
:100315007F30B9100C1200617F583004077F788058
:1003250003B908031200613002057F2D0200617FC9
:10033500202008F87F2B2006F322920280CF286E1A
:10034500756C6C2900D2011200263001F8C20178C3
:100355006530D50108F60200CC2D504349581200EE
:10036500262403B405004001E490035E9312005275
:0D037500743A120052D2037565040201B102
:1004D300E709F60870FA8046E709F20870FA803EE9
:1004E30088828C83E709F0A370FA807EE309F6081B
:1004F30070FA8076E309F20870FA806E88828C8342
:10050300E309F0A370FA806289828A83E0A3F60884
:1005130070FA805689828A83E0A3F20870FA804ACF
:1005230080D280FA80C680D4806580F280318010CA
:1005330080A680EA809A80A880DA80E280CA80312F
:1005430089828A83ECFAE493A3C8C582C8CCC583A5
:10055300CCF0A3C8C582C8CCC583CC70E9800D8913
:10056300828A83E493A3F60870F9ECFAA9F0EDFB11
:100573002289828A83ECFAE0A3C8C582C8CCC583EA
:10058300CCF0A3C8C582C8CCC583CC70EA80DD8912
:10059300828A83E493A3F20870F980CE88F0ED2475
:1005A30002B4040050C4F582EB2402B4040050BA30
:0905B300232345822390052373E4
:100E1000E4FFFE1205E8600C0FEF70010E09E970A7
:050E2000F20A80EF2240
:1005BC00EF4E6012EF60010EEDBB010B89828A8356
:1005CC00F0A3DFFCDEFA2289F05007F709DFFCA963
:0C05DC00F022BBFEFCF309DFFCA9F022BA
:10088400020904E493A3F8E493A34003F68001F27D
:1008940008DFF48029E493A3F85407240CC8C33375
:1008A400C4540F4420C8834004F456800146F6DF44
:1008B400E4800B0102040810204080900B8BE47E3E
:1008C400019360BCA3FF543F30E509541FFEE49339
:1008D400A360010ECF54C025E060A840B8E493A300
:1008E400FAE493A3F8E493A3C8C582C8CAC583CA2B
:1008F400F0A3C8C582C8CAC583CADFE9DEE780BEE3
:010BDE000016
:1005E800BB010689828A83E0225002E722BBFE0211
:0905F800E32289828A83E4932244
:10060100BB010689828A83F0225002F722BBFE01D8
:02061100F322D2
:10061300FAE6FB0808E6F925F0F618E6CA3AF622E8
:10062300D083D082F8E4937012740193700DA3A366
:1006330093F8740193F5828883E47374029368607A
:06064300EFA3A3A380DF7A
:100D7600EFB40A07740D120D81740A309811A89900
:100D8600B8130CC2983098FDA899C298B811F630DD
:070D960099FDC299F59922B5
:00000001FF
