:1004460002260000024D000002280000022A0000D9
:10045600013271062077736164620010103F065BFB
:100466004F666D7D077F6F777C395E7971062CFE4E
:05047600FDFBF7EFDFC4
:1004E400E52A702CE52B24FE600F146011146013B0
:1004F4002403701C7590FE800D7590FD8008759026
:10050400FB80037590F77F207E031200037590FF34
:0105140022C4
:10053A00E52A701FE52B24FE600E14600F1460106C
:10054A002403700F7590FE227590FD227590FB2290
:04055A007590F7227F
:0C05C400C2A37FE87E03120003D2A32232
:10038E00E532B52008752A00752B018025E532B5BA
:10039E002108752A00752B028018E532B5220875E2
:1003AE002A00752B03800BE532B52309752A0075DB
:0E03BE002B040204E4E532B524031205C42228
:10000300D3EF9400EE940040147D6E7C00ED1D70E0
:0D001300011CED4C70F7EF1F70E61E80E33E
:0100200022BD
:10059900754D00754E018F997F0A7E00120003E5A3
:0605A9004E454D70FA22E0
:10033C00E4F526F527E599B47113E5326471600D87
:10034C00E5326462600712053A75327122E59964F0
:10035C00776017E59964736011E5996461600BE54A
:10036C009964646005E599B4620685993202038E3E
:10037C007B007A007941AD9912047C7528007529AF
:02038C0001224C
:030023000204B123
:1004B100C0E0C0F0C083C082C0D075D00830990CB4
:1004C100C2AC754D00754E00C299D2AC309809C2CC
:1004D100AC12033CC298D2ACD0D0D082D083D0F041
:0304E100D0E03236
:060515007B007A00794131
:10051B008B5B8A5C895D7E007F087D7A120110AB54
:0F052B005BAA5CA95D90000A74FFF5F00200E383
:10047C008B4F8A5089518D5290000A1200AB240187
:10048C00FFE435F0FE7C007D0A12007590000AEC4A
:10049C008DF01200E390000A1200ABF58285F08318
:0504AC00E552020053BF
:0A03CC00E55A9558FDE5599557FCD8
:1003D6008B5B8A5C895DC3EC64809480500B740BE4
:1003E6002DF582E43CF5838015AE04AF057C007DD7
:1003F6000A120075AB5BAA5CA95D8D828C83120024
:0304060026FF22AC
:0405D0007580FF2211
:0402DE008F828E83FA
:1002E200E5274526604C209849E4FAFBC3EB95824A
:1002F200E5836480F8EA64809850E5C2A6C2A7EB61
:1003020025E02433F8E6F55B08E6F55C2410F8E610
:10031200F580D2A6C2A61205D0742C2BF8E6F58081
:10032200D2A7C2A77F027E001200030BBB00010A04
:0903320080BAE4F580D2A6C2A64F
:01033B00229F
:04040900AB07AA068D
:10040D00900000C3E5829BEA6480F8E583648098E0
:10041D005013AF82EF25E02433F8E6FE08E6FF1215
:10042D000599A380DE7526007527017F647E001275
:09043D000003AF03AE020202DE6F
:1001AA00E4F553F554F555F556F557F558E54C244D
:1001BA00FFF55AE54B34FFF5597B007A0079411275
:1001CA0005AF8E558F56C3E5549406E55364809463
:1001DA0080506BC3E5589556E5556480F8E5576439
:1001EA008098505A7B007A007941C31203CCEFC33E
:1001FA009430403F7B007A0079411203CCEFD394CC
:10020A003950307B007A007941C3E55A9554FDE5AF
:10021A00599553FC1203D6EF24D0FFE434FFFEE5D0
:10022A005425E02433F8A60608A6070554E55470B9
:10023A000205530558E558708D05570201D012057D
:08024A0015AF54AE5302040984
:10057F00759850E4F587758920758DFD858D8BD223
:0A058F008ED29CD2ACC299D2AF22EA
:10055E0012057F1205157B007A007941AD4CAC4B2C
:10056E001203D6BF40F0E529452860EA1201AA80A1
:01057E00E597
:03000000020252A7
:0C025200787FE4F6D8FD75815D0202990A
:10002600BB010CE58229F582E5833AF583E022508F
:1000360006E92582F8E622BBFE06E92582F8E222D9
:0D004600E58229F582E5833AF583E49322F3
:10005300F8BB010DE58229F582E5833AF583E8F0E3
:10006300225006E92582C8F622BBFE05E92582C88F
:02007300F22277
:10007500C2D5EC30E709B2D5E4C39DFDE49CFCEEA6
:1000850030E715B2D5E4C39FFFE49EFE120155C3C8
:10009500E49DFDE49CFC800312015530D507C3E4C3
:0600A5009FFFE49EFE2215
:1000AB00BB0110E58229F582E5833AF583E0F5F093
:1000BB00A3E0225009E92582F886F008E622BBFE70
:1000CB000AE92582F8E2F5F008E222E5832AF583B6
:0800DB00E993F5F0A3E993227B
:1000E300F8BB0111E58229F582E5833AF583E8F04F
:1000F300E5F0A3F0225009E92582C8F608A6F0220C
:0D010300BBFE09E92582C8F2E5F008F222F2
:1005AF00E4FFFE12013C600C0FEF70010E09E970C1
:0505BF00F20A80EF22AA
:10011000EF4E6012EF60010EEDBB010B89828A8306
:10012000F0A3DFFCDEFA2289F05007F709DFFCA913
:0C013000F022BBFEFCF309DFFCA9F0226A
:10025E0002055EE493A3F8E493A34003F68001F253
:10026E0008DFF48029E493A3F85407240CC8C333A1
:10027E00C4540F4420C8834004F456800146F6DF70
:10028E00E4800B0102040810204080900446E47EB6
:10029E00019360BCA3FF543F30E509541FFEE49365
:1002AE00A360010ECF54C025E060A840B8E493A32C
:1002BE00FAE493A3F8E493A3C8C582C8CAC583CA57
:1002CE00F0A3C8C582C8CAC583CADFE9DEE780BE0F
:01047B000080
:10013C00BB010689828A83E0225002E722BBFE02C1
:09014C00E32289828A83E49322F4
:10015500BC000BBE0029EF8DF084FFADF022E4CC8E
:10016500F875F008EF2FFFEE33FEEC33FCEE9DEC57
:10017500984005FCEE9DFE0FD5F0E9E4CEFD22ED9D
:10018500F8F5F0EE8420D21CFEADF075F008EF2FE7
:10019500FFED33FD4007985006D5F0F222C398FDD8
:0501A5000FD5F0EA2275
:00000001FF
