:100A690041542B5253540A0049500041542B4349D5
:100A7900504D4F44453D310A004F4B0041542B43E3
:100A890049504D55583D300A0041542B4349505364
:100A9900544152543D22554450222C223139322E90
:100AA9003136382E3139392E323235222C38303818
:100AB900302C313131312C300A0041542B4349500B
:060AC90053454E440A00F3
:100B260002280000024B0000022A0000022E0000EC
:100B3600013671024D000A024F000A0245000A0200
:100B46002C00000249177006227773616462005018
:100B560000003F065B4F666D7D077F6F777C395ED1
:100B660079710630FEFDFBF7EFDF46002479505021
:030B76005C503F91
:03000B00020DC221
:100DC200C0E0052DE52D7002052C0548E5487002AE
:0F0DD20005470538E53870020537C28DD0E0328D
:100878008E518F528C538D54C28DD2A9D28CD3E510
:100888002D954AE5496480F8E52C648098505EE52A
:1008980048954EE54D6480F8E54764809850058595
:1008A80052908002C294D3E5389550E54F6480F8A1
:1008B800E53764809850058554908002C295E548D4
:1008C800B5460AE547B54505E4F547F548E538B5C1
:1008D800460AE537B54505E4F537F538E52D6409E9
:1008E800452C709AAF2DAE2C120E008091C28CC28E
:0E08F800A97F057E00120E00E4F52CF52D22DE
:100BC000E52E703DE52F24FE601814601D14602290
:100BD0002403702D7590337FC87E00120DA47D32E2
:100BE00080127D347C007F38800E7D327C007F3027
:100BF00080067D307C007F317E00120878C294C26E
:020C000095223B
:100D7C00E52E701FE52F24FE600E14600F1460101A
:100D8C002403700F7590132275902C2275901222EB
:040D9C00759011221B
:0C0E3A00C2A37FE87E03120DA4D2A32205
:100C0200E536B52208752E00752F018025E536B52B
:100C12002308752E00752F028018E536B524087555
:100C22002E00752F03800BE536B52509752E00754C
:0E0C32002F04020BC0E536B52603120E3A223F
:040DA0007F647E00EE
:100DA400D3EF9400EE940040147D7D7C00ED1D7023
:0D0DB400011CED4C70F7EF1F70E61E80E390
:010DC100220F
:100E1700754B00754C018F997F0A7E00120DA4E572
:060E27004C454B70FA225D
:1009FF00E4F528F529E599B47114E5366471600EB4
:100A0F00E53664626008120D7C7536718023E599B6
:100A1F0064776017E59964736011E5996461600B01
:100A2F00E59964646005E599B4620F859936120CF7
:100A3F00027B007A007939020DE1E599C3943040C9
:100A4F0018E599D3943950117B007A007939AD9913
:0A0A5F00120CBB752A00752B012252
:03002300020CF0DC
:100CF000C0E0C0F0C083C082C0D075D00830990C6D
:100D0000C2AC754B00754C00C299D2AC309809C288
:100D1000AC1209FFC298D2ACD0D0D082D083D0F030
:030D2000D0E032EE
:100DE1008B5D8A5E895F7E007F087D7A1205BCABD0
:0F0DF1005DAA5EA95F90000A74FFF5F00204A6E8
:100CBB008B518A5289538D5490000A12046E240171
:100CCB00FFE435F0FE7C007D0A12043890000AEC3C
:100CDB008DF01204A690000A12046EF58285F08343
:050CEB00E5540203AF17
:0A0C7E00E55C955AFDE55B9559FC15
:100C88008B5D8A5E895FC3EC64809480500B740B23
:100C98002DF582E43CF5838015AE04AF057C007D1C
:100CA8000A120438AB5DAA5EA95F8D828C83120399
:030CB80082FF2296
:090E2D00F583E0F580D2A6C2A60F
:040E36007580FF22A2
:100E0000C2A6C2A774002FF58274003E120E2D8573
:070E10003080D2A7C2A72227
:040992008E5F8F6085
:10099600C2ACE5294528605E20985BE4FBFAC3EB10
:1009A6009560E55F6480F8EA6480985040C2A6C20C
:1009B600A7EB25E0FFEA33FE742A2FF58274003E8A
:1009C600F583E0F561A3E0F5622400F58274003555
:1009D60061120E2D74302BF8E6F580D2A7C2A77FE0
:1009E600027E00120DA40BBB00010A80B1E4F58063
:0809F600D2A6C2A6809CD2AC7F
:0109FE0022D6
:040B7A008E5D8F5E9F
:100B7E00E4FBFAC3EB955EE55D6480F8EA64809869
:100B8E005020EB25E0FFEA33FE742A2FF582740025
:100B9E003EF583E0FEA3E0FF120E170BBB00010A29
:100BAE0080D1752800752901120DA0AF5EAE5D02D1
:020BBE0009929A
:10072100E4F555F556F557F558F559F55A85435BF6
:1007310085445CFB7A00793912000E8E578F58C3BD
:10074100E5569406E555648094805077C3E55A9543
:1007510058E5576480F8E55964809850667B007AC3
:10076100007939C3120C7EEFC39430404B7B007A81
:10077100007939120C7EEFD39439503C7B007A001A
:100781007939C3E55C9556FDE55B9555FC120C88FE
:10079100EF24D0FDE434FFFCE55625E0FFE55533B9
:1007A100FE742A2FF58274003EF583ECF0A3EDF080
:1007B1000556E55670020555055AE55A70810559E9
:1007C1000207407B007A007939120DE1AF56AE5530
:0307D100020B7A9E
:040ACF007F017E0025
:040AD3008E598F5A4F
:100AD700E4F55BF55CFBFAAE59AF5A7C007D141266
:100AE70003D1C3EB9FEA9E5035309820AE5BAF5CD5
:100AF7007D0A1203E374102DF58274003CF583E53B
:100B070099F0055CE55C7002055BC298308FC80BF5
:0E0B1700BB00010A758D4CE4F58BC28F80B9CE
:010B250022AD
:060649007BFF7A0A7982B2
:10064F00755900755A01E4F55BF55CF55DF55E785B
:10065F005F7C00FD12059FE55A4559700302072084
:10066F00E4F55BF55CC3E55C940AE55B940050E749
:10067F007410255CF582E43400F583E0655F703912
:10068F00E55C2401FFE4355BFE7C007D0A1203E389
:10069F0074102DF58274003CF583E0B5601B755B1B
:1006AF0000755C0AE4F559F55AFE7F0A7D7A7B01E5
:1006BF007A0079101205BC809EE55C6409455B7079
:1006CF0042E4F55DF55EC2A6C2A77424255EF582ED
:1006DF00E43400120E2D7430255EF8E6F580D2A7B3
:1006EF00C2A77F027E00120DA4055EE55E700205B3
:1006FF005DC39406E55D940040CCE4F580D2A6C2BC
:10070F00A680BE055CE55C6003020674055B02060D
:01071F007465
:0107200022B6
:1007D400755500755601E4F557F558C2AC7F0AFE0D
:1007E400120DA4D299E4FFFE120E007BFF7A0A795F
:1007F400691200887F037E00120AD37BFF7A0A798C
:100804007112064F120DA07F017E00120E007BFFB5
:100814007A0A7974120088120ACF120649120DA0BE
:100824007F027E00120E007BFF7A0A79851200880F
:10083400120ACF120649120DA07F037E00120E0089
:100844007BFF7A0A7992120088120ACF12064912A3
:100854000DA07F047E00120E007BFF7A0A79C3127A
:100864000088120ACF120DA07F057E00120E00C26E
:0308740099D2AC6A
:01087700225E
:100C400075CBFF75CADC85CBCD85CACCE4F587753D
:100C5000C83475C901759850D29CD2BBD2B9758978
:100C600012758D4CF58BC2ABC28EC28F758CA4F5FC
:0E0C70008AC2A9C28CC28DC2ACC299D2AF2278
:100D2300120C407FD07E07120DA4D299D2ACE4F509
:100D330090FB7A007939120DE1E599B44009E52B6E
:100D4300452A600312072120B4EFE4F5901207D47B
:020D530080E737
:03000000020906EC
:0C090600787FE4F6D8FD75816C02094D85
:10038200BB010CE58229F582E5833AF583E0225030
:1003920006E92582F8E622BBFE06E92582F8E2227A
:0D03A200E58229F582E5833AF583E4932294
:1003AF00F8BB010DE58229F582E5833AF583E8F084
:1003BF00225006E92582C8F622BBFE05E92582C830
:0203CF00F22218
:1003D100EF8DF0A4A8F0CF8CF0A428CE8DF0A42E40
:0203E100FE22FA
:1003E300BC000BBE0029EF8DF084FFADF022E4CCFE
:1003F300F875F008EF2FFFEE33FEEC33FCEE9DECC7
:10040300984005FCEE9DFE0FD5F0E9E4CEFD22ED0C
:10041300F8F5F0EE8420D21CFEADF075F008EF2F56
:10042300FFED33FD4007985006D5F0F222C398FD47
:050433000FD5F0EA22E4
:10043800C2D5EC30E709B2D5E4C39DFDE49CFCEEDF
:1004480030E715B2D5E4C39FFFE49EFE1203E3C371
:10045800E49DFDE49CFC80031203E330D507C3E46C
:060468009FFFE49EFE224E
:10046E00BB0110E58229F582E5833AF583E0F5F0CC
:10047E00A3E0225009E92582F886F008E622BBFEA9
:10048E000AE92582F8E2F5F008E222E5832AF583EF
:08049E00E993F5F0A3E99322B4
:1004A600F8BB0111E58229F582E5833AF583E8F088
:1004B600E5F0A3F0225009E92582C8F608A6F02245
:0D04C600BBFE09E92582C8F2E5F008F2222C
:10002600E568245CF8E60568227859300702785CB2
:10003600E475F0011206130205E82000EB7F2ED2CC
:10004600008018EF540F2490D43440D4FF30040BB2
:10005600EF24BFB41A0050032461FFE5696002155E
:1000660069056CE56C7002056B30070D7859E4750F
:10007600F001120613EF020601020D557403D207B2
:100086008003E4C207F5688B598A5A895BE4F569EF
:10009600F56BF56CE56960077F2012006180F575E8
:1000A6006AFFC201C200C202C203C205C206C2087A
:1000B60012002FFF700D3007057F00120072AF6C23
:1000C600AE6B22B4255FC2D5C20412002FFF24D026
:1000D600B40A00501A75F00A786930D50508B6FFDB
:1000E6000106C6A426F620D5047002D20380D924C0
:1000F600CFB41A00EF5004C2E5D204020272D20154
:1001060080C6D20080C0D20280BCD2D580BAD205C9
:1001160080B47F201200612002077401B569004097
:10012600F1120026FF12006102009AD208D2068060
:1001360095120026FB120026FA120026F94A4B7089
:100146000679437A037BFF20022EE569602A7E004A
:100156008E8275830012038260060EEE656A70F069
:10016600C2D5EBC0E0EAC0E0E9C0E0EE1202B9D0C9
:10017600E0F9D0E0FAD0E0FB1205E8FF60AAEBC098
:10018600E0EAC0E0E9C0E0120061D0E02401F9D065
:10019600E03400FAD0E0FBE56A0460DCD56AD98079
:1001A600877BFF7A0279B5D202809C79108002792A
:1001B60008C206C2088008D2D5790A8004790AC224
:1001C600D5E56A047002F56AE4FAFDFEFF12002620
:1001D600FC7B08200113120026FD7B1030000A125A
:1001E6000026FE120026FF7B20EC3382D592D550E6
:1001F60013C3E43000069FFFE49EFEE42001039D46
:10020600FDE49CFCE4CBF8C201EC700CCFCECDCC67
:10021600E824F8F870F38017C3EF33FFEE33FEEDF2
:1002260033FDEC33FCEB33FB994002FB0FD8E9EBD3
:10023600300105F8D0E0C448B201C0E00AEC4D4EEA
:100246004F78207B0070C2EAB56A0040BCC0E0125D
:1002560002BBD0F0D0E0200104C4C0E0C4B201C0AB
:10026600F012004AD0F0D5F0EB02009A12062301F4
:10027600375301B15801084C01044201B54F01BD85
:0F0286004401BD49011D4301C35501A74601A70E
:100295004501A747036350010C2D01102E01332B97
:1002A500011423013120034C2A00CC480000012B06
:1002B5003F3F3F00790AA2D5200314300509B91044
:1002C500020404B9080104A2D52006025001042045
:1002D50002689202B569005034C0E07F20300319EE
:1002E5007F30A20272067205500F120312C202C2BB
:1002F50006C205C2087F30800F300503E9C0E01251
:100305000061300503D0E0F9D0E0B569CC300517C0
:100315007F30B9100C1200617F583004077F788058
:1003250003B908031200613002057F2D0200617FC9
:10033500202008F87F2B2006F322920280CF286E1A
:10034500756C6C2900D2011200263001F8C20178C3
:100355006930D50108F60200CC2D504349581200EA
:10036500262403B405004001E490035E9312005275
:0D037500743A120052D2037569040201B1FE
:1004D300E709F60870FA8046E709F20870FA803EE9
:1004E30088828C83E709F0A370FA807EE309F6081B
:1004F30070FA8076E309F20870FA806E88828C8342
:10050300E309F0A370FA806289828A83E0A3F60884
:1005130070FA805689828A83E0A3F20870FA804ACF
:1005230080D280FA80C680D4806580F280318010CA
:1005330080A680EA809A80A880DA80E280CA80312F
:1005430089828A83ECFAE493A3C8C582C8CCC583A5
:10055300CCF0A3C8C582C8CCC583CC70E9800D8913
:10056300828A83E493A3F60870F9ECFAA9F0EDFB11
:100573002289828A83ECFAE0A3C8C582C8CCC583EA
:10058300CCF0A3C8C582C8CCC583CC70EA80DD8912
:10059300828A83E493A3F20870F980CE88F0ED2475
:1005A30002B4040050C4F582EB2402B4040050BA30
:0905B300232345822390052373E4
:10000E00E4FFFE1205E8600C0FEF70010E09E970B7
:05001E00F20A80EF2250
:1005BC00EF4E6012EF60010EEDBB010B89828A8356
:1005CC00F0A3DFFCDEFA2289F05007F709DFFCA963
:0C05DC00F022BBFEFCF309DFFCA9F022BA
:10091200020D23E493A3F8E493A34003F68001F2CB
:1009220008DFF48029E493A3F85407240CC8C333E6
:10093200C4540F4420C8834004F456800146F6DFB5
:10094200E4800B0102040810204080900B26E47E14
:10095200019360BCA3FF543F30E509541FFEE493AA
:10096200A360010ECF54C025E060A840B8E493A371
:10097200FAE493A3F8E493A3C8C582C8CAC583CA9C
:10098200F0A3C8C582C8CAC583CADFE9DEE780BE54
:010B7900007B
:1005E800BB010689828A83E0225002E722BBFE0211
:0905F800E32289828A83E4932244
:10060100BB010689828A83F0225002F722BBFE01D8
:02061100F322D2
:10061300FAE6FB0808E6F925F0F618E6CA3AF622E8
:10062300D083D082F8E4937012740193700DA3A366
:1006330093F8740193F5828883E47374029368607A
:06064300EFA3A3A380DF7A
:100D5500EFB40A07740D120D60740A309811A89942
:100D6500B8130CC2983098FDA899C298B811F630FE
:070D750099FDC299F59922D6
:00000001FF
